{
  "contractName": "SurveyContract",
  "abi": [
    {
      "inputs": [],
      "stateMutability": "nonpayable",
      "type": "constructor"
    },
    {
      "inputs": [],
      "name": "nextId",
      "outputs": [
        {
          "internalType": "uint256",
          "name": "",
          "type": "uint256"
        }
      ],
      "stateMutability": "view",
      "type": "function"
    },
    {
      "inputs": [],
      "name": "owner",
      "outputs": [
        {
          "internalType": "address",
          "name": "",
          "type": "address"
        }
      ],
      "stateMutability": "view",
      "type": "function"
    },
    {
      "inputs": [
        {
          "internalType": "uint256",
          "name": "",
          "type": "uint256"
        }
      ],
      "name": "surveys",
      "outputs": [
        {
          "internalType": "uint256",
          "name": "id",
          "type": "uint256"
        },
        {
          "internalType": "string",
          "name": "question",
          "type": "string"
        },
        {
          "internalType": "bool",
          "name": "isRatingSurvey",
          "type": "bool"
        }
      ],
      "stateMutability": "view",
      "type": "function"
    },
    {
      "inputs": [
        {
          "internalType": "string",
          "name": "_question",
          "type": "string"
        }
      ],
      "name": "createRatingSurvey",
      "outputs": [],
      "stateMutability": "nonpayable",
      "type": "function"
    },
    {
      "inputs": [
        {
          "internalType": "string",
          "name": "_question",
          "type": "string"
        }
      ],
      "name": "createTextResponseSurvey",
      "outputs": [],
      "stateMutability": "nonpayable",
      "type": "function"
    },
    {
      "inputs": [
        {
          "internalType": "uint256",
          "name": "_surveyId",
          "type": "uint256"
        },
        {
          "internalType": "uint256",
          "name": "_rating",
          "type": "uint256"
        }
      ],
      "name": "rateSurvey",
      "outputs": [],
      "stateMutability": "nonpayable",
      "type": "function"
    },
    {
      "inputs": [
        {
          "internalType": "uint256",
          "name": "_surveyId",
          "type": "uint256"
        },
        {
          "internalType": "string",
          "name": "_response",
          "type": "string"
        }
      ],
      "name": "respondToSurvey",
      "outputs": [],
      "stateMutability": "nonpayable",
      "type": "function"
    },
    {
      "inputs": [
        {
          "internalType": "uint256",
          "name": "_surveyId",
          "type": "uint256"
        }
      ],
      "name": "getSurveyRatings",
      "outputs": [
        {
          "internalType": "uint256[5]",
          "name": "ratings",
          "type": "uint256[5]"
        }
      ],
      "stateMutability": "view",
      "type": "function"
    },
    {
      "inputs": [
        {
          "internalType": "uint256",
          "name": "_surveyId",
          "type": "uint256"
        }
      ],
      "name": "getSurveyResponses",
      "outputs": [
        {
          "internalType": "string[]",
          "name": "",
          "type": "string[]"
        }
      ],
      "stateMutability": "view",
      "type": "function"
    },
    {
      "inputs": [
        {
          "internalType": "uint256",
          "name": "_surveyId",
          "type": "uint256"
        },
        {
          "internalType": "address",
          "name": "_voter",
          "type": "address"
        }
      ],
      "name": "hasVoted",
      "outputs": [
        {
          "internalType": "bool",
          "name": "",
          "type": "bool"
        }
      ],
      "stateMutability": "view",
      "type": "function"
    }
  ],
  "bytecode": "0x6080604052348015600e575f80fd5b503360025f6101000a81548173ffffffffffffffffffffffffffffffffffffffff021916908373ffffffffffffffffffffffffffffffffffffffff16021790555061186e8061005c5f395ff3fe608060405234801561000f575f80fd5b506004361061009c575f3560e01c806385ccb4301161006457806385ccb4301461015657806386e68b90146101725780638da5cb5b146101a4578063b0afe771146101c2578063d88d616c146101de5761009c565b80631860d778146100a057806322e55f35146100d057806343859632146100ec578063538c3e151461011c57806361b8ce8c14610138575b5f80fd5b6100ba60048036038101906100b59190610c43565b61020e565b6040516100c79190610d99565b60405180910390f35b6100ea60048036038101906100e59190610ee5565b610373565b005b61010660048036038101906101019190610f86565b610475565b6040516101139190610fde565b60405180910390f35b61013660048036038101906101319190610ee5565b6104e8565b005b6101406105e9565b60405161014d9190611006565b60405180910390f35b610170600480360381019061016b919061101f565b6105ef565b005b61018c60048036038101906101879190610c43565b6107d3565b60405161019b939291906110c1565b60405180910390f35b6101ac610899565b6040516101b9919061110c565b60405180910390f35b6101dc60048036038101906101d79190611125565b6108be565b005b6101f860048036038101906101f39190610c43565b610ae6565b6040516102059190611208565b60405180910390f35b60605f828154811061022357610222611221565b5b905f5260205f2090600602016002015f9054906101000a900460ff161561027f576040517f08c379a0000000000000000000000000000000000000000000000000000000008152600401610276906112be565b60405180910390fd5b5f828154811061029257610291611221565b5b905f5260205f209060060201600401805480602002602001604051908101604052809291908181526020015f905b82821015610368578382905f5260205f200180546102dd90611309565b80601f016020809104026020016040519081016040528092919081815260200182805461030990611309565b80156103545780601f1061032b57610100808354040283529160200191610354565b820191905f5260205f20905b81548152906001019060200180831161033757829003601f168201915b5050505050815260200190600101906102c0565b505050509050919050565b60025f9054906101000a900473ffffffffffffffffffffffffffffffffffffffff1673ffffffffffffffffffffffffffffffffffffffff163373ffffffffffffffffffffffffffffffffffffffff1614610402576040517f08c379a00000000000000000000000000000000000000000000000000000000081526004016103f9906113a9565b60405180910390fd5b5f8060018160018154018082558091505003905f5260205f2090600602019050600154815f01819055508181600101908161043d9190611564565b506001816002015f6101000a81548160ff02191690831515021790555060015f81548092919061046c90611660565b91905055505050565b5f80838154811061048957610488611221565b5b905f5260205f2090600602016005015f8373ffffffffffffffffffffffffffffffffffffffff1673ffffffffffffffffffffffffffffffffffffffff1681526020019081526020015f205f9054906101000a900460ff16905092915050565b60025f9054906101000a900473ffffffffffffffffffffffffffffffffffffffff1673ffffffffffffffffffffffffffffffffffffffff163373ffffffffffffffffffffffffffffffffffffffff1614610577576040517f08c379a000000000000000000000000000000000000000000000000000000000815260040161056e906113a9565b60405180910390fd5b5f8060018160018154018082558091505003905f5260205f2090600602019050600154815f0181905550818160010190816105b29190611564565b505f816002015f6101000a81548160ff02191690831515021790555060015f8154809291906105e090611660565b91905055505050565b60015481565b5f828154811061060257610601611221565b5b905f5260205f2090600602016002015f9054906101000a900460ff161561065e576040517f08c379a0000000000000000000000000000000000000000000000000000000008152600401610655906112be565b60405180910390fd5b5f828154811061067157610670611221565b5b905f5260205f2090600602016005015f3373ffffffffffffffffffffffffffffffffffffffff1673ffffffffffffffffffffffffffffffffffffffff1681526020019081526020015f205f9054906101000a900460ff1615610708576040517f08c379a00000000000000000000000000000000000000000000000000000000081526004016106ff906116f1565b60405180910390fd5b5f828154811061071b5761071a611221565b5b905f5260205f20906006020160040181908060018154018082558091505060019003905f5260205f20015f9091909190915090816107599190611564565b5060015f838154811061076f5761076e611221565b5b905f5260205f2090600602016005015f3373ffffffffffffffffffffffffffffffffffffffff1673ffffffffffffffffffffffffffffffffffffffff1681526020019081526020015f205f6101000a81548160ff0219169083151502179055505050565b5f81815481106107e1575f80fd5b905f5260205f2090600602015f91509050805f01549080600101805461080690611309565b80601f016020809104026020016040519081016040528092919081815260200182805461083290611309565b801561087d5780601f106108545761010080835404028352916020019161087d565b820191905f5260205f20905b81548152906001019060200180831161086057829003601f168201915b505050505090806002015f9054906101000a900460ff16905083565b60025f9054906101000a900473ffffffffffffffffffffffffffffffffffffffff1681565b5f82815481106108d1576108d0611221565b5b905f5260205f2090600602016002015f9054906101000a900460ff1661092c576040517f08c379a00000000000000000000000000000000000000000000000000000000081526004016109239061177f565b60405180910390fd5b6001811015801561093e575060058111155b61097d576040517f08c379a0000000000000000000000000000000000000000000000000000000008152600401610974906117e7565b60405180910390fd5b5f82815481106109905761098f611221565b5b905f5260205f2090600602016005015f3373ffffffffffffffffffffffffffffffffffffffff1673ffffffffffffffffffffffffffffffffffffffff1681526020019081526020015f205f9054906101000a900460ff1615610a27576040517f08c379a0000000000000000000000000000000000000000000000000000000008152600401610a1e906116f1565b60405180910390fd5b5f8281548110610a3a57610a39611221565b5b905f5260205f2090600602016003015f8281526020019081526020015f205f815480929190610a6890611660565b919050555060015f8381548110610a8257610a81611221565b5b905f5260205f2090600602016005015f3373ffffffffffffffffffffffffffffffffffffffff1673ffffffffffffffffffffffffffffffffffffffff1681526020019081526020015f205f6101000a81548160ff0219169083151502179055505050565b610aee610bdd565b5f8281548110610b0157610b00611221565b5b905f5260205f2090600602016002015f9054906101000a900460ff16610b5c576040517f08c379a0000000000000000000000000000000000000000000000000000000008152600401610b539061177f565b60405180910390fd5b5f600190505b60058111610bd7575f8381548110610b7d57610b7c611221565b5b905f5260205f2090600602016003015f8281526020019081526020015f205482600183610baa9190611805565b60058110610bbb57610bba611221565b5b6020020181815250508080610bcf90611660565b915050610b62565b50919050565b6040518060a00160405280600590602082028036833780820191505090505090565b5f604051905090565b5f80fd5b5f80fd5b5f819050919050565b610c2281610c10565b8114610c2c575f80fd5b50565b5f81359050610c3d81610c19565b92915050565b5f60208284031215610c5857610c57610c08565b5b5f610c6584828501610c2f565b91505092915050565b5f81519050919050565b5f82825260208201905092915050565b5f819050602082019050919050565b5f81519050919050565b5f82825260208201905092915050565b8281835e5f83830152505050565b5f601f19601f8301169050919050565b5f610cd982610c97565b610ce38185610ca1565b9350610cf3818560208601610cb1565b610cfc81610cbf565b840191505092915050565b5f610d128383610ccf565b905092915050565b5f602082019050919050565b5f610d3082610c6e565b610d3a8185610c78565b935083602082028501610d4c85610c88565b805f5b85811015610d875784840389528151610d688582610d07565b9450610d7383610d1a565b925060208a01995050600181019050610d4f565b50829750879550505050505092915050565b5f6020820190508181035f830152610db18184610d26565b905092915050565b5f80fd5b5f80fd5b7f4e487b71000000000000000000000000000000000000000000000000000000005f52604160045260245ffd5b610df782610cbf565b810181811067ffffffffffffffff82111715610e1657610e15610dc1565b5b80604052505050565b5f610e28610bff565b9050610e348282610dee565b919050565b5f67ffffffffffffffff821115610e5357610e52610dc1565b5b610e5c82610cbf565b9050602081019050919050565b828183375f83830152505050565b5f610e89610e8484610e39565b610e1f565b905082815260208101848484011115610ea557610ea4610dbd565b5b610eb0848285610e69565b509392505050565b5f82601f830112610ecc57610ecb610db9565b5b8135610edc848260208601610e77565b91505092915050565b5f60208284031215610efa57610ef9610c08565b5b5f82013567ffffffffffffffff811115610f1757610f16610c0c565b5b610f2384828501610eb8565b91505092915050565b5f73ffffffffffffffffffffffffffffffffffffffff82169050919050565b5f610f5582610f2c565b9050919050565b610f6581610f4b565b8114610f6f575f80fd5b50565b5f81359050610f8081610f5c565b92915050565b5f8060408385031215610f9c57610f9b610c08565b5b5f610fa985828601610c2f565b9250506020610fba85828601610f72565b9150509250929050565b5f8115159050919050565b610fd881610fc4565b82525050565b5f602082019050610ff15f830184610fcf565b92915050565b61100081610c10565b82525050565b5f6020820190506110195f830184610ff7565b92915050565b5f806040838503121561103557611034610c08565b5b5f61104285828601610c2f565b925050602083013567ffffffffffffffff81111561106357611062610c0c565b5b61106f85828601610eb8565b9150509250929050565b5f82825260208201905092915050565b5f61109382610c97565b61109d8185611079565b93506110ad818560208601610cb1565b6110b681610cbf565b840191505092915050565b5f6060820190506110d45f830186610ff7565b81810360208301526110e68185611089565b90506110f56040830184610fcf565b949350505050565b61110681610f4b565b82525050565b5f60208201905061111f5f8301846110fd565b92915050565b5f806040838503121561113b5761113a610c08565b5b5f61114885828601610c2f565b925050602061115985828601610c2f565b9150509250929050565b5f60059050919050565b5f81905092915050565b5f819050919050565b61118981610c10565b82525050565b5f61119a8383611180565b60208301905092915050565b5f602082019050919050565b6111bb81611163565b6111c5818461116d565b92506111d082611177565b805f5b838110156112005781516111e7878261118f565b96506111f2836111a6565b9250506001810190506111d3565b505050505050565b5f60a08201905061121b5f8301846111b2565b92915050565b7f4e487b71000000000000000000000000000000000000000000000000000000005f52603260045260245ffd5b7f5468697320737572766579206973206e6f742061207465787420726573706f6e5f8201527f7365207375727665792e00000000000000000000000000000000000000000000602082015250565b5f6112a8602a83611079565b91506112b38261124e565b604082019050919050565b5f6020820190508181035f8301526112d58161129c565b9050919050565b7f4e487b71000000000000000000000000000000000000000000000000000000005f52602260045260245ffd5b5f600282049050600182168061132057607f821691505b602082108103611333576113326112dc565b5b50919050565b7f4f6e6c79206f776e65722063616e20706572666f726d207468697320616374695f8201527f6f6e2e0000000000000000000000000000000000000000000000000000000000602082015250565b5f611393602383611079565b915061139e82611339565b604082019050919050565b5f6020820190508181035f8301526113c081611387565b9050919050565b5f819050815f5260205f209050919050565b5f6020601f8301049050919050565b5f82821b905092915050565b5f600883026114237fffffffffffffffffffffffffffffffffffffffffffffffffffffffffffffffff826113e8565b61142d86836113e8565b95508019841693508086168417925050509392505050565b5f819050919050565b5f61146861146361145e84610c10565b611445565b610c10565b9050919050565b5f819050919050565b6114818361144e565b61149561148d8261146f565b8484546113f4565b825550505050565b5f90565b6114a961149d565b6114b4818484611478565b505050565b5b818110156114d7576114cc5f826114a1565b6001810190506114ba565b5050565b601f82111561151c576114ed816113c7565b6114f6846113d9565b81016020851015611505578190505b611519611511856113d9565b8301826114b9565b50505b505050565b5f82821c905092915050565b5f61153c5f1984600802611521565b1980831691505092915050565b5f611554838361152d565b9150826002028217905092915050565b61156d82610c97565b67ffffffffffffffff81111561158657611585610dc1565b5b6115908254611309565b61159b8282856114db565b5f60209050601f8311600181146115cc575f84156115ba578287015190505b6115c48582611549565b86555061162b565b601f1984166115da866113c7565b5f5b82811015611601578489015182556001820191506020850194506020810190506115dc565b8683101561161e578489015161161a601f89168261152d565b8355505b6001600288020188555050505b505050505050565b7f4e487b71000000000000000000000000000000000000000000000000000000005f52601160045260245ffd5b5f61166a82610c10565b91507fffffffffffffffffffffffffffffffffffffffffffffffffffffffffffffffff820361169c5761169b611633565b5b600182019050919050565b7f596f75206861766520616c726561647920766f7465642e0000000000000000005f82015250565b5f6116db601783611079565b91506116e6826116a7565b602082019050919050565b5f6020820190508181035f830152611708816116cf565b9050919050565b7f5468697320737572766579206973206e6f74206120726174696e6720737572765f8201527f65792e0000000000000000000000000000000000000000000000000000000000602082015250565b5f611769602383611079565b91506117748261170f565b604082019050919050565b5f6020820190508181035f8301526117968161175d565b9050919050565b7f526174696e67206d757374206265206265747765656e203120616e6420352e005f82015250565b5f6117d1601f83611079565b91506117dc8261179d565b602082019050919050565b5f6020820190508181035f8301526117fe816117c5565b9050919050565b5f61180f82610c10565b915061181a83610c10565b925082820390508181111561183257611831611633565b5b9291505056fea264697066735822122003bb120a70df5db5cfb4f78df7bac64f48e9e24ed7a95fb77859398616456fbd64736f6c634300081a0033",
  "immutableReferences": {},
  "source": "// SPDX-License-Identifier: MIT\npragma solidity ^0.8.0;\n\ncontract SurveyContract {\n    struct Survey {\n        uint id;\n        string question;\n        bool isRatingSurvey; // Anket tipini belirler: true ise puanlama, false ise metin yantl\n        mapping(uint => uint) ratings; // Puanlamalar saklar\n        string[] responses; // Metin yantlarn saklar\n        mapping(address => bool) hasVoted; // Kullancnn oylama yaplp yaplmadn kontrol eder\n    }\n\n    Survey[] public surveys;\n    uint public nextId;\n    address public owner;\n\n    constructor() {\n        owner = msg.sender;\n    }\n\n    modifier onlyOwner() {\n        require(msg.sender == owner, \"Only owner can perform this action.\");\n        _;\n    }\n\n    // Puanlama anketi oluturur\n    function createRatingSurvey(string memory _question) public onlyOwner {\n        Survey storage newSurvey = surveys.push();\n        newSurvey.id = nextId;\n        newSurvey.question = _question;\n        newSurvey.isRatingSurvey = true;\n        nextId++;\n    }\n\n    // Metin yantl anket oluturur\n    function createTextResponseSurvey(string memory _question) public onlyOwner {\n        Survey storage newSurvey = surveys.push();\n        newSurvey.id = nextId;\n        newSurvey.question = _question;\n        newSurvey.isRatingSurvey = false;\n        nextId++;\n    }\n\n    // Puanlama yapar\n    function rateSurvey(uint _surveyId, uint _rating) public {\n        require(surveys[_surveyId].isRatingSurvey, \"This survey is not a rating survey.\");\n        require(_rating >= 1 && _rating <= 5, \"Rating must be between 1 and 5.\");\n        require(!surveys[_surveyId].hasVoted[msg.sender], \"You have already voted.\");\n        surveys[_surveyId].ratings[_rating]++;\n        surveys[_surveyId].hasVoted[msg.sender] = true;\n    }\n\n    // Metin yant gnderir\n    function respondToSurvey(uint _surveyId, string memory _response) public {\n        require(!surveys[_surveyId].isRatingSurvey, \"This survey is not a text response survey.\");\n        require(!surveys[_surveyId].hasVoted[msg.sender], \"You have already voted.\");\n        surveys[_surveyId].responses.push(_response);\n        surveys[_surveyId].hasVoted[msg.sender] = true;\n    }\n\n    // Belirli bir anketin tm puanlamalarn getirir\n    function getSurveyRatings(uint _surveyId) public view returns (uint[5] memory ratings) {\n        require(surveys[_surveyId].isRatingSurvey, \"This survey is not a rating survey.\");\n        for (uint i = 1; i <= 5; i++) {\n            ratings[i-1] = surveys[_surveyId].ratings[i];\n        }\n        return ratings;\n    }\n\n    // Belirli bir anketin tm metin yantlarn getirir\n    function getSurveyResponses(uint _surveyId) public view returns (string[] memory) {\n        require(!surveys[_surveyId].isRatingSurvey, \"This survey is not a text response survey.\");\n        return surveys[_surveyId].responses;\n    }\n\n    // Oylama kontrol yapar\n    function hasVoted(uint _surveyId, address _voter) public view returns (bool) {\n        return surveys[_surveyId].hasVoted[_voter];\n    }\n}",
  "sourcePath": "/Users/bkkas/Documents/Survey/contracts/Survey.sol",
  "compiler": {
    "name": "solc",
    "version": "0.8.26+commit.8a97fa7a.Emscripten.clang"
  },
  "schemaVersion": "3.4.16",
  "updatedAt": "2024-05-25T18:05:04.878Z",
  "devdoc": {
    "kind": "dev",
    "methods": {},
    "version": 1
  },
  "userdoc": {
    "kind": "user",
    "methods": {},
    "version": 1
  }
}